:100000000C9461000C9489000C9489000C94890074
:100010000C9489000C9489000C9489000C9489003C
:100020000C9489000C9489000C9489000C9489002C
:100030000C9489000C9489000C9489000C9489001C
:100040000C9402040C9489000C94D0030C94AA0321
:100050000C9489000C9489000C9489000C948900FC
:100060000C9489000C9489005A7375744574686502
:10007000726E65745544503A3A626567696E5061B4
:10008000636B657428636F6E73742063686172209C
:100090002A686F73742C2075696E7431365F742012
:1000A000706F7274293B206973206E6F74207375B2
:1000B00070706F727465642120536F7272792100C1
:1000C0004C0411241FBECFEFD8E0DEBFCDBF11E03E
:1000D000A0E0B1E0E8ECF1E102C005900D92A83497
:1000E000B107D9F722E0A8E4B1E001C01D92A5351F
:1000F000B207E1F710E0C1E6D0E004C02197FE01AD
:100100000E940406C036D107C9F70E94CB040C94A4
:10011000E2080C940000FC01538D448D252F30E043
:10012000842F90E0821B930B541710F0CF96089504
:1001300001970895FC01918D828D981761F0A28D31
:10014000AE0FBF2FB11D5D968C91928D9F5F9F73F7
:10015000928F90E008958FEF9FEF0895FC01918DAD
:10016000828D981731F0828DE80FF11D858D90E01A
:1001700008958FEF9FEF0895FC01918D228D892FB7
:1001800090E0805C9F4F821B91098F73992708959F
:10019000FC01A48DA80FB92FB11DA35ABF4F2C91FC
:1001A000848D90E001968F739927848FA689B789F3
:1001B0002C93A089B1898C91837080648C93938DEA
:1001C000848D981306C00288F389E02D80818F7D8D
:1001D00080830895EF92FF920F931F93CF93DF9345
:1001E000EC0181E0888F9B8D8C8D98131AC0E88973
:1001F000F989808185FF15C09FB7F894EE89FF8942
:100200006083E889F98980818370806480839FBFDF
:1002100081E090E0DF91CF911F910F91FF90EF90DF
:100220000895F62E0B8D10E00F5F1F4F0F731127EF
:10023000E02E8C8D8E110CC00FB607FCFACFE8892A
:10024000F989808185FFF5CFCE010E94C800F1CFEA
:10025000EB8DEC0FFD2FF11DE35AFF4FF0829FB79E
:10026000F8940B8FEA89FB8980818062CFCFCF938E
:10027000DF93EC01888D8823B9F0AA89BB89E889CE
:10028000F9898C9185FD03C0808186FD0DC00FB674
:1002900007FCF7CF8C9185FFF2CF808185FFEDCFF2
:1002A000CE010E94C800E9CFDF91CF91089581E788
:1002B00091E00E94BC0021E0892B09F420E0822F0C
:1002C000089580E090E0892B29F00E945701811168
:1002D0000C9400000895AF92BF92CF92DF92EF92FC
:1002E000FF920F931F93CF93DF936C017B018B01E0
:1002F000040F151FEB015E01AE18BF08C017D10730
:1003000059F06991D601ED91FC910190F081E02DB9
:10031000C6010995892B79F7C501DF91CF911F910E
:100320000F91FF90EF90DF90CF90BF90AF90089526
:1003300066B747B728B739B770E090E080E0962FEE
:10034000882777276627842B632B722B089581E0FB
:10035000089587E08CBF95EE9BBF1ABE8CBF86EEDA
:100360008BBF1ABE089590E080E0089597E09CBF8F
:1003700087EE8BBF2AB79CBF88EE8BBF8AB7322F20
:10038000282F9CBF85EE8BBF8AB79CBF96EE9BBF84
:100390009AB7892798278927821B930B48175907F3
:1003A00008F4CA01A9014751584FFB01DB01A80F0E
:1003B000B91FEA17FB0739F05CBF4BBF6AB76193FF
:1003C0004F5F5F4FF6CF280F391F47E04CBF57EE06
:1003D0005BBF3ABF4CBF38EE3BBF2ABF0895CF93F7
:1003E000DF931F92CDB7DEB7DC01ED91FC91028C5B
:1003F000F38DE02D41E050E0BE016F5F7F4F099526
:100400001816190634F4898190E00F90DF91CF918E
:1004100008958FEF9FEFF9CFFC0197E09CBF85EE29
:100420008BBF8AB79CBF26EE2BBF6AB79CBF27EE57
:100430002BBF2AB79CBF98EE9BBF3AB71CBE90E17A
:100440009BBF9AB71CBE4FE04BBF4AB71CBE5EE0D5
:100450005BBF5AB71CBE7DE07BBF7AB7708B518BF8
:10046000428B938B1CBE91E19BBF4AB71CBE92E1AD
:100470009BBF9AB7542F492F558B448B982F862FAB
:10048000232732272327821B930B08951CBE83E169
:100490008BBF8AB71CBE94E19BBF9AB78927982768
:1004A0008927FB019C012B5E3F4FDB01A40FB51F89
:1004B000EA17FB0739F061913CBF2BBF6ABF2F5F82
:1004C0003F4FF6CF480F591F1CBE83E18BBF5ABF69
:1004D0001CBE84E18BBF4ABF90E080E00895CF93BB
:1004E000DF931F92CDB7DEB76983DC01ED91FC91FC
:1004F0000280F381E02D41E050E0BE016F5F7F4F4D
:1005000009950F90DF91CF9108951CBE1BBE8FEF10
:100510008ABF1CBE1BBE82E08ABF90E080E00895C7
:10052000FB0132812381948185811CBE1BBE61E069
:100530006ABF1CBE6DE06BBF3ABF1CBE3EE03BBF56
:100540002ABF1CBE2FE02BBF9ABF1CBE90E19BBFF1
:100550008ABF1CBE81E18BBF5ABF1CBE82E18BBF2C
:100560004ABF81E090E008950895DC01ED91FC918F
:10057000008CF18DE02D09941CBE8BE08BBF7ABFFF
:100580001CBE8CE08BBF6ABF1CBE1BBE83E08ABF53
:1005900081E00895FC018489958908952EE331E076
:1005A000FC0131832083FB01408951896289738971
:1005B000FC0142835383648375830895DC01ED91CC
:1005C000FC91028CF38DE02D099490E080E0089579
:1005D0008F929F92AF92BF92EF92FF920F931F93D1
:1005E000CF93DF93CDB7DEB7A1970FB6F894DEBFF8
:1005F0000FBECDBF7C01FA01CB0119A2223008F455
:100600002AE08E010F5D1F4F822E912CB12CA12C60
:10061000BF01A50194010E94E205F901CA016A30F7
:1006200074F5605DD8016E938D01232B242B252B4F
:1006300079F790E080E0109789F0FD0101900020AB
:10064000E9F73197AF014A1B5B0BD701ED91FC91A4
:100650000280F381E02DB801C7010995A1960FB67C
:10066000F894DEBF0FBECDBFDF91CF911F910F91E8
:10067000FF90EF90BF90AF909F908F900895695C2E
:10068000D1CF8F929F92AF92BF92CF92DF92EF9293
:10069000FF920F931F93CF93DF937C01EB016C01CB
:1006A00082E0C80ED11C4701E5E08E0E911C10E0DF
:1006B00000E0F60141916F0150E070E060E02AE057
:1006C000CE010E94E8025C01E881F9810190F0818D
:1006D000E02D6EE2CE0109958A0D9B1D080F191FB2
:1006E000C814D90431F7F701458150E070E060E0AB
:1006F0002AE0CE010E94E802800F911FDF91CF9186
:100700001F910F91FF90EF90DF90CF90BF90AF902F
:100710009F908F90089542E050E060E471E00C9467
:100720006B01CF93DF93C8E6D0E0FE0164916623AE
:1007300039F081E791E00E94EA002196892BA9F720
:1007400081E791E00E948B03989590E080E0DF9133
:10075000CF9108951F920F920FB60F9211242F93ED
:100760003F934F935F936F937F938F939F93AF9339
:10077000BF93EF93FF9381E791E00E94C800FF9140
:10078000EF91BF91AF919F918F917F916F915F9109
:100790004F913F912F910F900FBE0F901F90189582
:1007A0001F920F920FB60F9211242F938F939F9346
:1007B000EF93FF93E0918101F09182018081E091BC
:1007C0008701F091880182FD1BC0908180918A0190
:1007D0008F5F8F7320918B01821741F0E0918A0126
:1007E000F0E0EF58FE4F958F80938A01FF91EF91D3
:1007F0009F918F912F910F900FBE0F901F90189582
:100800008081F4CF1F920F920FB60F9211242F9375
:100810003F938F939F93AF93BF9380914D0190919E
:100820004E01A0914F01B091500130914C0123E055
:10083000230F2D3758F50196A11DB11D20934C01B2
:1008400080934D0190934E01A0934F01B0935001BE
:100850008091480190914901A0914A01B0914B01CA
:100860000196A11DB11D8093480190934901A09369
:100870004A01B0934B01BF91AF919F918F913F91EE
:100880002F910F900FBE0F901F90189526E8230F01
:100890000296A11DB11DD2CFE1E7F1E013821282D1
:1008A00048EE53E060E070E04483558366837783CD
:1008B00084E091E09183808385EC90E09587848744
:1008C00084EC90E09787868780EC90E0918B808B1A
:1008D00081EC90E0938B828B82EC90E0958B848B03
:1008E00086EC90E0978B868B118E128E138E148E71
:1008F000EEE0F2E08EE391E0918380831282138236
:1009000014821582ECE1F2E09183808312821382DB
:1009100014821582E4E1F2E09183808312821382D3
:1009200014821582E2E2F2E09183808312821382C4
:1009300014821582E8E2F2E09183808312821382AE
:1009400014821582EFE4F2E0918380831282138295
:1009500014821582E9E4F2E09183808320EC228303
:1009600028EA238328E324832BE62583EEE2F2E0C2
:1009700013821282448355836683778326E131E0B4
:100980003183208397878687108A118A128A138A77
:1009900084E0808F0895CF93DF9300D000D000D003
:1009A000CDB7DEB7789484B5826084BD84B58160AC
:1009B00084BD85B5826085BD85B5816085BD80912A
:1009C0006E00816080936E001092810080918100A2
:1009D000826080938100809181008160809381009A
:1009E000809180008160809380008091B10084605C
:1009F0008093B1008091B00081608093B0008091BD
:100A00007A00846080937A0080917A00826080937B
:100A10007A0080917A00816080937A0080917A00D8
:100A2000806880937A001092C10088E0809316025B
:100A30008093170280931802809319020EE311E04D
:100A40001A8309831B821C821D821E821CBE9AE0AF
:100A50009BBF9AB71CBE29E02BBF2AB71CBE8BBF19
:100A60008AB71CBE37E03BBF3AB73B838C832D83EC
:100A70009E8361E771E0CE0101960E94410381E708
:100A800091E00E948B0362ED74E08EE292E00E949E
:100A9000BC021A83098380914B0290914C02A09171
:100AA0004D02B0914E028B839C83AD83BE8341EE99
:100AB00050E1BE016F5F7F4F8EE292E00E94900294
:100AC00040E250E061E571E08EE292E00E94460271
:100AD0008EE292E00E948502E1E5F1E080E2DF0132
:100AE0001D928A95E9F783E4C82E81E0D82E7F0114
:100AF000580190E2392E20E0822E20E0922E0E94B2
:100B000098012B013C01BAE14B0EBDE15B1E611C5B
:100B1000711C0E9498014616570668067906C8F7A8
:100B200088B309B3102F082FA80170E060E02AE015
:100B300081E791E00E94E80281E791E00E948B0347
:100B40001F930F93DF92CF92FF92EF920E940A06BB
:100B5000BA82A98280914B0290914C02A0914D02E1
:100B6000B0914E028B839C83AD83BE8341EE50E1F6
:100B7000BE016F5F7F4F8EE292E00E94900240E2E2
:100B800050E061E571E08EE292E00E9446028EE262
:100B900092E00E948502F701232D11922A95E9F730
:100BA0000F900F900F900F900F900F908114910461
:100BB00009F4A5CF0E945701882309F4A0CF0E9411
:100BC00000009DCFA1E21A2EAA1BBB1BFD010DC088
:100BD000AA1FBB1FEE1FFF1FA217B307E407F507ED
:100BE00020F0A21BB30BE40BF50B661F771F881FC9
:100BF000991F1A9469F760957095809590959B015F
:100C0000AC01BD01CF010895EE0FFF1F0590F491D7
:100C1000E02D0994AEE0B0E0E0E1F6E00C94B90814
:100C20000D891E8986E08C831A8309838FEF9FE7E5
:100C30009E838D83AE01475E5F4F6F89788DCE01B5
:100C400001960E942D062F813885020F131FF8018F
:100C500010822E96E4E00C94D508ABE0B0E0E3E31C
:100C6000F6E00C94AB087C013B018A01FC01178281
:100C70001682838181FFC8C1CE0101965C01F70114
:100C80009381F30193FD859193FF81913F01882327
:100C900009F453C1853239F493FD859193FF819115
:100CA0003F01853229F4B70190E00E941D08E7CF8B
:100CB000912C212C312CFFE1F31538F08B3211F1FE
:100CC00090F4803209F1833229F137FC3CC020EDE9
:100CD000280F2A3050F536FE20C08AE0989E200D5D
:100CE0001124922E06C08D3291F0803371F76894F2
:100CF00030F8F30193FD859193FF81913F018111BC
:100D0000DACF21C0689431F8689432F8F2CF689451
:100D100033F8EFCF689434F8ECCFEAE02E9E200D44
:100D20001124222E689435F8E4CF8E3229F436FC53
:100D300004C1689436F8DDCF8C3619F4689437F81E
:100D4000D8CF8836B1F2982F9F7D95549330E0F03C
:100D50008336A1F18337C1F1833509F063C02801DF
:100D6000F2E04F0E511CF801C080D180692D70E077
:100D700036FC02C06FEF7FEFC6010E9407084C01EE
:100D8000689437F882010AC00C5F1F4FFFE3F983B4
:100D900088248394912C6501E89437F833FE2DC0A4
:100DA000522C8114910471F5552009F468CFB701D4
:100DB00080E290E00E941D085A94F6CFF8018081ED
:100DC00089830E5F1F4FE4CF2801F2E04F0E511CC4
:100DD000F801C080D180692D70E036FC02C06FEF51
:100DE0007FEFC6010E9412084C018201D5CFB701E6
:100DF00080E290E00E941D082A942814190409F04A
:100E0000B0F7CECFF60137FC859137FE81916F01A7
:100E1000B70190E00E941D0851105A94F1E08F1A1A
:100E20009108BFCF843619F0893609F077C0F801F0
:100E300037FE6BC060817181828193810C5F1F4F8F
:100E4000F32DFF763F2E97FF09C090958095709502
:100E500061957F4F8F4F9F4F689437F82AE030E0BD
:100E6000A5010E944D08C82ECA188C2C432C36FEB2
:100E70000CC0E89440F8C91440F434FE05C032FCBC
:100E800003C0F32DFE7E4F2E892C44FE95C0FE013B
:100E9000EC0DF11D8081803309F087C0242D297E5F
:100EA000422E842D8870582E43FC95C040FE8FC082
:100EB0009C2C821418F42C0C922C981844FE91C08F
:100EC000B70180E390E00E941D0842FE09C088E758
:100ED00090E041FE02C088E590E0B7010E941D0845
:100EE000C91408F48AC0CA94D12C9FEFC91AD90A30
:100EF000CA0CDB1CF60182916F01B70190E00E94E1
:100F00001D08AC14BD04B1F74FCF60817181072E6D
:100F1000000C880B990B0E5F1F4F92CFD32CE894D7
:100F2000D4F82AE030E0853739F1232D297FD22EFD
:100F30008F3601F148F48835A9F0F7018681978151
:100F40002B96E2E10C94C708803749F08837A9F75F
:100F5000D4FE02C06894D2F820E130E00DC068945D
:100F6000D4F8F6CF34FE03C0822F8660D82E20E15D
:100F700032E002C028E030E0F801D7FE0FC0608107
:100F80007181828193810C5F1F4FA5010E944D08E2
:100F9000C82ECA183D2CE89437F867CF608171815C
:100FA00090E080E00E5F1F4FF0CF42FC02C08394C0
:100FB00078CF8394839475CF842D867809F471CF8C
:100FC000F6CFB70180E290E00E941D08839482145E
:100FD000C0F3512C73CF522C5818821408F46ECFE2
:100FE000F8CF842D867809F47BCF8BE241FE80E236
:100FF00047FC8DE2B70190E071CFB70180E390E04C
:101000000E941D089A946CCF8FEF9FEF99CFFC013F
:101010000590615070400110D8F7809590958E0F23
:101020009F1F0895FC016150704001900110D8F796
:10103000809590958E0F9F1F08950F931F93CF93C8
:10104000DF93182F092FEB018B8181FD09C01FEF62
:101050000FEF812F902FDF91CF911F910F91089566
:1010600082FF14C02E813F818C819D812817390712
:101070003CF4E881F981CF0101969983888310833C
:101080008E819F8101969F838E83E3CFE885F985CA
:10109000812F0995892BA1F3DACFFA01AA272830ED
:1010A00051F1203181F1E8946F936E7F6E5F7F4F35
:1010B0008F4F9F4FAF4FB1E03ED0B4E03CD0670FB1
:1010C000781F891F9A1FA11D680F791F8A1F911D04
:1010D000A11D6A0F711D811D911DA11D20D009F454
:1010E00068943F912AE0269F11243019305D319396
:1010F000DEF6CF010895462F4770405D4193B3E07F
:101100000FD0C9F7F6CF462F4F70405D4A3318F025
:10111000495D31FD4052419302D0A9F7EACFB4E0D6
:10112000A6959795879577956795BA95C9F700978E
:101130006105710508959B01AC010A2E069457952F
:10114000479537952795BA95C9F7620F731F841F86
:10115000951FA01D08952F923F924F925F926F921C
:101160007F928F929F92AF92BF92CF92DF92EF9237
:10117000FF920F931F93CF93DF93CDB7DEB7CA1BB8
:10118000DB0B0FB6F894DEBF0FBECDBF09942A88E3
:10119000398848885F846E847D848C849B84AA848B
:1011A000B984C884DF80EE80FD800C811B81AA8118
:1011B000B981CE0FD11D0FB6F894DEBF0FBECDBFE3
:0811C000ED010895F894FFCF42
:1011C80000000000EA006B018B003701BC009A00A8
:1011D800AE00000000006F024602E502A901B50258
:1011E800EF01B301BC02B4029002910385020C0224
:1011F800B601DE02CE02CA02A701000000004103C8
:081208000D0A0025640A000034
:00000001FF
